{
  "_format": "hh-sol-artifact-1",
  "contractName": "Deride",
  "sourceName": "contracts/deride.sol",
  "abi": [
    {
      "anonymous": false,
      "inputs": [
        {
          "indexed": false,
          "internalType": "uint256[]",
          "name": "WaitingRiders",
          "type": "uint256[]"
        }
      ],
      "name": "RiderDetails",
      "type": "event"
    },
    {
      "anonymous": false,
      "inputs": [
        {
          "indexed": false,
          "internalType": "uint256",
          "name": "riderNumber",
          "type": "uint256"
        }
      ],
      "name": "RiderPicked",
      "type": "event"
    },
    {
      "inputs": [
        {
          "internalType": "uint256",
          "name": "riderNumber",
          "type": "uint256"
        }
      ],
      "name": "acceptRequest",
      "outputs": [],
      "stateMutability": "nonpayable",
      "type": "function"
    },
    {
      "inputs": [
        {
          "internalType": "uint256",
          "name": "cost",
          "type": "uint256"
        }
      ],
      "name": "cancelRideRequest",
      "outputs": [],
      "stateMutability": "nonpayable",
      "type": "function"
    },
    {
      "inputs": [],
      "name": "driveRequest",
      "outputs": [],
      "stateMutability": "nonpayable",
      "type": "function"
    },
    {
      "inputs": [
        {
          "internalType": "uint256",
          "name": "riderNumber",
          "type": "uint256"
        },
        {
          "internalType": "uint256",
          "name": "cost",
          "type": "uint256"
        }
      ],
      "name": "markRideCompleted",
      "outputs": [],
      "stateMutability": "nonpayable",
      "type": "function"
    },
    {
      "inputs": [
        {
          "internalType": "uint256",
          "name": "cost",
          "type": "uint256"
        }
      ],
      "name": "rideRequest",
      "outputs": [],
      "stateMutability": "nonpayable",
      "type": "function"
    },
    {
      "inputs": [
        {
          "internalType": "address",
          "name": "DRDContractAddress",
          "type": "address"
        }
      ],
      "name": "setDRDtokenAddress",
      "outputs": [],
      "stateMutability": "nonpayable",
      "type": "function"
    },
    {
      "inputs": [
        {
          "internalType": "uint256",
          "name": "user_id",
          "type": "uint256"
        },
        {
          "internalType": "uint256",
          "name": "_state",
          "type": "uint256"
        }
      ],
      "name": "setState",
      "outputs": [],
      "stateMutability": "nonpayable",
      "type": "function"
    },
    {
      "inputs": [],
      "name": "showAllRequests",
      "outputs": [],
      "stateMutability": "nonpayable",
      "type": "function"
    },
    {
      "inputs": [
        {
          "internalType": "address",
          "name": "to",
          "type": "address"
        },
        {
          "internalType": "uint256",
          "name": "amount",
          "type": "uint256"
        }
      ],
      "name": "transferDRD",
      "outputs": [],
      "stateMutability": "nonpayable",
      "type": "function"
    },
    {
      "inputs": [
        {
          "internalType": "uint256",
          "name": "",
          "type": "uint256"
        }
      ],
      "name": "userList",
      "outputs": [
        {
          "internalType": "address",
          "name": "",
          "type": "address"
        }
      ],
      "stateMutability": "view",
      "type": "function"
    },
    {
      "inputs": [
        {
          "internalType": "address",
          "name": "",
          "type": "address"
        }
      ],
      "name": "users",
      "outputs": [
        {
          "internalType": "bool",
          "name": "isUser",
          "type": "bool"
        },
        {
          "internalType": "uint256",
          "name": "number",
          "type": "uint256"
        },
        {
          "internalType": "enum Deride.Status",
          "name": "state",
          "type": "uint8"
        }
      ],
      "stateMutability": "view",
      "type": "function"
    }
  ],
  "bytecode": "0x608060405234801561001057600080fd5b50612230806100206000396000f3fe608060405234801561001057600080fd5b50600436106100a95760003560e01c8063a87430ba11610071578063a87430ba1461012a578063af428a601461015c578063b9d77bfc14610178578063e4517e4314610194578063e66eb206146101b0578063f25b5208146101cc576100a9565b80634ba1f098146100ae57806386b2a1d8146100ca5780639e5d3610146100d45780639f4216e8146100de578063a5ba83f61461010e575b600080fd5b6100c860048036038101906100c391906117cb565b6101e8565b005b6100d2610622565b005b6100dc61092f565b005b6100f860048036038101906100f391906117cb565b610b3d565b6040516101059190611839565b60405180910390f35b61012860048036038101906101239190611854565b610b7c565b005b610144600480360381019061013f91906118c0565b610f14565b6040516101539392919061198e565b60405180910390f35b610176600480360381019061017191906118c0565b610f58565b005b610192600480360381019061018d9190611854565b61100a565b005b6101ae60048036038101906101a991906117cb565b6112d5565b005b6101ca60048036038101906101c591906119c5565b61158d565b005b6101e660048036038101906101e191906117cb565b611637565b005b60011515600260003373ffffffffffffffffffffffffffffffffffffffff1673ffffffffffffffffffffffffffffffffffffffff16815260200190815260200160002060000160009054906101000a900460ff1615151461027e576040517f08c379a000000000000000000000000000000000000000000000000000000000815260040161027590611a88565b60405180910390fd5b6002600381111561029257610291611917565b5b600260003373ffffffffffffffffffffffffffffffffffffffff1673ffffffffffffffffffffffffffffffffffffffff16815260200190815260200160002060020160009054906101000a900460ff1660038111156102f4576102f3611917565b5b14610334576040517f08c379a000000000000000000000000000000000000000000000000000000000815260040161032b90611b1a565b60405180910390fd5b3373ffffffffffffffffffffffffffffffffffffffff166003828154811061035f5761035e611b3a565b5b9060005260206000200160009054906101000a900473ffffffffffffffffffffffffffffffffffffffff1673ffffffffffffffffffffffffffffffffffffffff16036103e0576040517f08c379a00000000000000000000000000000000000000000000000000000000081526004016103d790611bb5565b60405180910390fd5b600160038111156103f4576103f3611917565b5b600260006003848154811061040c5761040b611b3a565b5b9060005260206000200160009054906101000a900473ffffffffffffffffffffffffffffffffffffffff1673ffffffffffffffffffffffffffffffffffffffff1673ffffffffffffffffffffffffffffffffffffffff16815260200190815260200160002060020160009054906101000a900460ff16600381111561049457610493611917565b5b146104d4576040517f08c379a00000000000000000000000000000000000000000000000000000000081526004016104cb90611c47565b60405180910390fd5b6003600260003373ffffffffffffffffffffffffffffffffffffffff1673ffffffffffffffffffffffffffffffffffffffff16815260200190815260200160002060020160006101000a81548160ff0219169083600381111561053a57610539611917565b5b02179055506003600260006003848154811061055957610558611b3a565b5b9060005260206000200160009054906101000a900473ffffffffffffffffffffffffffffffffffffffff1673ffffffffffffffffffffffffffffffffffffffff1673ffffffffffffffffffffffffffffffffffffffff16815260200190815260200160002060020160006101000a81548160ff021916908360038111156105e3576105e2611917565b5b02179055507fbb3937fca28526e3521a94bfdbced55a6bae44a3e4f4a66c36874f12e5459ddd816040516106179190611c67565b60405180910390a150565b60011515600260003373ffffffffffffffffffffffffffffffffffffffff1673ffffffffffffffffffffffffffffffffffffffff16815260200190815260200160002060000160009054906101000a900460ff161515146106b8576040517f08c379a00000000000000000000000000000000000000000000000000000000081526004016106af90611a88565b60405180910390fd5b600260038111156106cc576106cb611917565b5b600260003373ffffffffffffffffffffffffffffffffffffffff1673ffffffffffffffffffffffffffffffffffffffff16815260200190815260200160002060020160009054906101000a900460ff16600381111561072e5761072d611917565b5b1461076e576040517f08c379a000000000000000000000000000000000000000000000000000000000815260040161076590611b1a565b60405180910390fd5b60005b6003805490508110156108f4576001600381111561079257610791611917565b5b60026000600384815481106107aa576107a9611b3a565b5b9060005260206000200160009054906101000a900473ffffffffffffffffffffffffffffffffffffffff1673ffffffffffffffffffffffffffffffffffffffff1673ffffffffffffffffffffffffffffffffffffffff16815260200190815260200160002060020160009054906101000a900460ff16600381111561083257610831611917565b5b036108e1576001600260006003848154811061085157610850611b3a565b5b9060005260206000200160009054906101000a900473ffffffffffffffffffffffffffffffffffffffff1673ffffffffffffffffffffffffffffffffffffffff1673ffffffffffffffffffffffffffffffffffffffff1681526020019081526020016000206001015490806001815401808255809150506001900390600052602060002001600090919091909150555b80806108ec90611cb1565b915050610771565b507f50561d7c0e16db8b156e2c176ff947687fa2c363fabf7f466380849d159d6edd60016040516109259190611e07565b60405180910390a1565b60001515600260003373ffffffffffffffffffffffffffffffffffffffff1673ffffffffffffffffffffffffffffffffffffffff16815260200190815260200160002060000160009054906101000a900460ff16151503610ad0576003339080600181540180825580915050600190039060005260206000200160009091909190916101000a81548173ffffffffffffffffffffffffffffffffffffffff021916908373ffffffffffffffffffffffffffffffffffffffff16021790555060405180606001604052806001151581526020016001600380549050610a139190611e29565b815260200160026003811115610a2c57610a2b611917565b5b815250600260003373ffffffffffffffffffffffffffffffffffffffff1673ffffffffffffffffffffffffffffffffffffffff16815260200190815260200160002060008201518160000160006101000a81548160ff0219169083151502179055506020820151816001015560408201518160020160006101000a81548160ff02191690836003811115610ac357610ac2611917565b5b0217905550905050610b3b565b60028060003373ffffffffffffffffffffffffffffffffffffffff1673ffffffffffffffffffffffffffffffffffffffff16815260200190815260200160002060020160006101000a81548160ff02191690836003811115610b3557610b34611917565b5b02179055505b565b60038181548110610b4d57600080fd5b906000526020600020016000915054906101000a900473ffffffffffffffffffffffffffffffffffffffff1681565b60011515600260003373ffffffffffffffffffffffffffffffffffffffff1673ffffffffffffffffffffffffffffffffffffffff16815260200190815260200160002060000160009054906101000a900460ff16151514610c12576040517f08c379a0000000000000000000000000000000000000000000000000000000008152600401610c0990611ea9565b60405180910390fd5b600380811115610c2557610c24611917565b5b600260003373ffffffffffffffffffffffffffffffffffffffff1673ffffffffffffffffffffffffffffffffffffffff16815260200190815260200160002060020160009054906101000a900460ff166003811115610c8757610c86611917565b5b14610cc7576040517f08c379a0000000000000000000000000000000000000000000000000000000008152600401610cbe90611f15565b60405180910390fd5b600380811115610cda57610cd9611917565b5b6002600060038581548110610cf257610cf1611b3a565b5b9060005260206000200160009054906101000a900473ffffffffffffffffffffffffffffffffffffffff1673ffffffffffffffffffffffffffffffffffffffff1673ffffffffffffffffffffffffffffffffffffffff16815260200190815260200160002060020160009054906101000a900460ff166003811115610d7a57610d79611917565b5b14610dba576040517f08c379a0000000000000000000000000000000000000000000000000000000008152600401610db190611f81565b60405180910390fd5b610def3360646055670de0b6b3a764000085610dd69190611fa1565b610de09190611fa1565b610dea9190612012565b61158d565b6000600260003373ffffffffffffffffffffffffffffffffffffffff1673ffffffffffffffffffffffffffffffffffffffff16815260200190815260200160002060020160006101000a81548160ff02191690836003811115610e5557610e54611917565b5b021790555060006003811115610e6e57610e6d611917565b5b6002600060038581548110610e8657610e85611b3a565b5b9060005260206000200160009054906101000a900473ffffffffffffffffffffffffffffffffffffffff1673ffffffffffffffffffffffffffffffffffffffff1673ffffffffffffffffffffffffffffffffffffffff16815260200190815260200160002060020160009054906101000a900460ff166003811115610f0e57610f0d611917565b5b50505050565b60026020528060005260406000206000915090508060000160009054906101000a900460ff16908060010154908060020160009054906101000a900460ff16905083565b600073ffffffffffffffffffffffffffffffffffffffff168173ffffffffffffffffffffffffffffffffffffffff1603610fc7576040517f08c379a0000000000000000000000000000000000000000000000000000000008152600401610fbe9061208f565b60405180910390fd5b806000806101000a81548173ffffffffffffffffffffffffffffffffffffffff021916908373ffffffffffffffffffffffffffffffffffffffff16021790555050565b600081036110bc576000600260006003858154811061102c5761102b611b3a565b5b9060005260206000200160009054906101000a900473ffffffffffffffffffffffffffffffffffffffff1673ffffffffffffffffffffffffffffffffffffffff1673ffffffffffffffffffffffffffffffffffffffff16815260200190815260200160002060020160006101000a81548160ff021916908360038111156110b6576110b5611917565b5b02179055505b6001810361116e57600160026000600385815481106110de576110dd611b3a565b5b9060005260206000200160009054906101000a900473ffffffffffffffffffffffffffffffffffffffff1673ffffffffffffffffffffffffffffffffffffffff1673ffffffffffffffffffffffffffffffffffffffff16815260200190815260200160002060020160006101000a81548160ff0219169083600381111561116857611167611917565b5b02179055505b6002810361121f5760028060006003858154811061118f5761118e611b3a565b5b9060005260206000200160009054906101000a900473ffffffffffffffffffffffffffffffffffffffff1673ffffffffffffffffffffffffffffffffffffffff1673ffffffffffffffffffffffffffffffffffffffff16815260200190815260200160002060020160006101000a81548160ff0219169083600381111561121957611218611917565b5b02179055505b600381036112d1576003600260006003858154811061124157611240611b3a565b5b9060005260206000200160009054906101000a900473ffffffffffffffffffffffffffffffffffffffff1673ffffffffffffffffffffffffffffffffffffffff1673ffffffffffffffffffffffffffffffffffffffff16815260200190815260200160002060020160006101000a81548160ff021916908360038111156112cb576112ca611917565b5b02179055505b5050565b60008060009054906101000a900473ffffffffffffffffffffffffffffffffffffffff16905060001515600260003373ffffffffffffffffffffffffffffffffffffffff1673ffffffffffffffffffffffffffffffffffffffff16815260200190815260200160002060000160009054906101000a900460ff1615150361149c576003339080600181540180825580915050600190039060005260206000200160009091909190916101000a81548173ffffffffffffffffffffffffffffffffffffffff021916908373ffffffffffffffffffffffffffffffffffffffff160217905550604051806060016040528060011515815260200160016003805490506113df9190611e29565b8152602001600160038111156113f8576113f7611917565b5b815250600260003373ffffffffffffffffffffffffffffffffffffffff1673ffffffffffffffffffffffffffffffffffffffff16815260200190815260200160002060008201518160000160006101000a81548160ff0219169083151502179055506020820151816001015560408201518160020160006101000a81548160ff0219169083600381111561148f5761148e611917565b5b0217905550905050611508565b6001600260003373ffffffffffffffffffffffffffffffffffffffff1673ffffffffffffffffffffffffffffffffffffffff16815260200190815260200160002060020160006101000a81548160ff0219169083600381111561150257611501611917565b5b02179055505b8073ffffffffffffffffffffffffffffffffffffffff166323b872dd3330856040518463ffffffff1660e01b8152600401611545939291906120af565b6020604051808303816000875af1158015611564573d6000803e3d6000fd5b505050506040513d601f19601f820116820180604052508101906115889190612112565b505050565b60008060009054906101000a900473ffffffffffffffffffffffffffffffffffffffff1690508073ffffffffffffffffffffffffffffffffffffffff1663a9059cbb84846040518363ffffffff1660e01b81526004016115ee92919061213f565b6020604051808303816000875af115801561160d573d6000803e3d6000fd5b505050506040513d601f19601f820116820180604052508101906116319190612112565b50505050565b6001600381111561164b5761164a611917565b5b600260003373ffffffffffffffffffffffffffffffffffffffff1673ffffffffffffffffffffffffffffffffffffffff16815260200190815260200160002060020160009054906101000a900460ff1660038111156116ad576116ac611917565b5b146116ed576040517f08c379a00000000000000000000000000000000000000000000000000000000081526004016116e4906121da565b60405180910390fd5b6000600260003373ffffffffffffffffffffffffffffffffffffffff1673ffffffffffffffffffffffffffffffffffffffff16815260200190815260200160002060020160006101000a81548160ff0219169083600381111561175357611752611917565b5b021790555061178d336064605f670de0b6b3a7640000856117749190611fa1565b61177e9190611fa1565b6117889190612012565b61158d565b50565b600080fd5b6000819050919050565b6117a881611795565b81146117b357600080fd5b50565b6000813590506117c58161179f565b92915050565b6000602082840312156117e1576117e0611790565b5b60006117ef848285016117b6565b91505092915050565b600073ffffffffffffffffffffffffffffffffffffffff82169050919050565b6000611823826117f8565b9050919050565b61183381611818565b82525050565b600060208201905061184e600083018461182a565b92915050565b6000806040838503121561186b5761186a611790565b5b6000611879858286016117b6565b925050602061188a858286016117b6565b9150509250929050565b61189d81611818565b81146118a857600080fd5b50565b6000813590506118ba81611894565b92915050565b6000602082840312156118d6576118d5611790565b5b60006118e4848285016118ab565b91505092915050565b60008115159050919050565b611902816118ed565b82525050565b61191181611795565b82525050565b7f4e487b7100000000000000000000000000000000000000000000000000000000600052602160045260246000fd5b6004811061195757611956611917565b5b50565b600081905061196882611946565b919050565b60006119788261195a565b9050919050565b6119888161196d565b82525050565b60006060820190506119a360008301866118f9565b6119b06020830185611908565b6119bd604083018461197f565b949350505050565b600080604083850312156119dc576119db611790565b5b60006119ea858286016118ab565b92505060206119fb858286016117b6565b9150509250929050565b600082825260208201905092915050565b7f4e65656420746f2062652061207573657220746f2073656c656374207269646560008201527f7200000000000000000000000000000000000000000000000000000000000000602082015250565b6000611a72602183611a05565b9150611a7d82611a16565b604082019050919050565b60006020820190508181036000830152611aa181611a65565b9050919050565b7f55736572206e6565647320746f20626520696e20647269766572206d6f64652060008201527f746f207069636b20726964657200000000000000000000000000000000000000602082015250565b6000611b04602d83611a05565b9150611b0f82611aa8565b604082019050919050565b60006020820190508181036000830152611b3381611af7565b9050919050565b7f4e487b7100000000000000000000000000000000000000000000000000000000600052603260045260246000fd5b7f43616e6e6f74207069636b20796f757273656c66000000000000000000000000600082015250565b6000611b9f601483611a05565b9150611baa82611b69565b602082019050919050565b60006020820190508181036000830152611bce81611b92565b9050919050565b7f75736572206265696e67207069636b65642068617320746f206265206120726960008201527f6465720000000000000000000000000000000000000000000000000000000000602082015250565b6000611c31602383611a05565b9150611c3c82611bd5565b604082019050919050565b60006020820190508181036000830152611c6081611c24565b9050919050565b6000602082019050611c7c6000830184611908565b92915050565b7f4e487b7100000000000000000000000000000000000000000000000000000000600052601160045260246000fd5b6000611cbc82611795565b91507fffffffffffffffffffffffffffffffffffffffffffffffffffffffffffffffff8203611cee57611ced611c82565b5b600182019050919050565b600081549050919050565b600082825260208201905092915050565b60008190508160005260206000209050919050565b611d3381611795565b82525050565b6000611d458383611d2a565b60208301905092915050565b60008160001c9050919050565b6000819050919050565b6000611d7b611d7683611d51565b611d5e565b9050919050565b6000611d8e8254611d68565b9050919050565b6000600182019050919050565b6000611dad82611cf9565b611db78185611d04565b9350611dc283611d15565b8060005b83811015611dfa57611dd782611d82565b611de18882611d39565b9750611dec83611d95565b925050600181019050611dc6565b5085935050505092915050565b60006020820190508181036000830152611e218184611da2565b905092915050565b6000611e3482611795565b9150611e3f83611795565b9250828203905081811115611e5757611e56611c82565b5b92915050565b7f4e65656420746f20626520612075736572206669727374000000000000000000600082015250565b6000611e93601783611a05565b9150611e9e82611e5d565b602082019050919050565b60006020820190508181036000830152611ec281611e86565b9050919050565b7f447269766572206e6565647320746f206265206f6e2072696465206669727374600082015250565b6000611eff602083611a05565b9150611f0a82611ec9565b602082019050919050565b60006020820190508181036000830152611f2e81611ef2565b9050919050565b7f52696465722073686f756c64206265206f6e2072696465206669727374000000600082015250565b6000611f6b601d83611a05565b9150611f7682611f35565b602082019050919050565b60006020820190508181036000830152611f9a81611f5e565b9050919050565b6000611fac82611795565b9150611fb783611795565b9250828202611fc581611795565b91508282048414831517611fdc57611fdb611c82565b5b5092915050565b7f4e487b7100000000000000000000000000000000000000000000000000000000600052601260045260246000fd5b600061201d82611795565b915061202883611795565b92508261203857612037611fe3565b5b828204905092915050565b7f496e76616c696420436f6e747261637420416464726573730000000000000000600082015250565b6000612079601883611a05565b915061208482612043565b602082019050919050565b600060208201905081810360008301526120a88161206c565b9050919050565b60006060820190506120c4600083018661182a565b6120d1602083018561182a565b6120de6040830184611908565b949350505050565b6120ef816118ed565b81146120fa57600080fd5b50565b60008151905061210c816120e6565b92915050565b60006020828403121561212857612127611790565b5b6000612136848285016120fd565b91505092915050565b6000604082019050612154600083018561182a565b6121616020830184611908565b9392505050565b7f55736572206e65656420746f207265717565737420612064726976652062656660008201527f6f72652063616e63656c6c696e67000000000000000000000000000000000000602082015250565b60006121c4602e83611a05565b91506121cf82612168565b604082019050919050565b600060208201905081810360008301526121f3816121b7565b905091905056fea2646970667358221220a000b194a83b5cb20cfae99d2dad38bb96cd381639db315742613582a3605d0164736f6c63430008110033",
  "linkReferences": {},
  "deployedLinkReferences": {}
}