{
  "_format": "hh-sol-artifact-1",
  "contractName": "Deride",
  "sourceName": "contracts/deride.sol",
  "abi": [
    {
      "anonymous": false,
      "inputs": [
        {
          "indexed": false,
          "internalType": "uint256[]",
          "name": "WaitingRiders",
          "type": "uint256[]"
        }
      ],
      "name": "RiderDetails",
      "type": "event"
    },
    {
      "anonymous": false,
      "inputs": [
        {
          "indexed": false,
          "internalType": "uint256",
          "name": "riderNumber",
          "type": "uint256"
        }
      ],
      "name": "RiderPicked",
      "type": "event"
    },
    {
      "inputs": [
        {
          "internalType": "uint256",
          "name": "riderNumber",
          "type": "uint256"
        }
      ],
      "name": "acceptRequest",
      "outputs": [],
      "stateMutability": "nonpayable",
      "type": "function"
    },
    {
      "inputs": [],
      "name": "cancelRideRequest",
      "outputs": [],
      "stateMutability": "nonpayable",
      "type": "function"
    },
    {
      "inputs": [],
      "name": "driveRequest",
      "outputs": [],
      "stateMutability": "nonpayable",
      "type": "function"
    },
    {
      "inputs": [
        {
          "internalType": "uint256",
          "name": "riderNumber",
          "type": "uint256"
        }
      ],
      "name": "markRideCompleted",
      "outputs": [],
      "stateMutability": "nonpayable",
      "type": "function"
    },
    {
      "inputs": [],
      "name": "rideRequest",
      "outputs": [],
      "stateMutability": "nonpayable",
      "type": "function"
    },
    {
      "inputs": [],
      "name": "showAllRequests",
      "outputs": [],
      "stateMutability": "nonpayable",
      "type": "function"
    },
    {
      "inputs": [
        {
          "internalType": "uint256",
          "name": "",
          "type": "uint256"
        }
      ],
      "name": "userList",
      "outputs": [
        {
          "internalType": "address",
          "name": "",
          "type": "address"
        }
      ],
      "stateMutability": "view",
      "type": "function"
    },
    {
      "inputs": [
        {
          "internalType": "address",
          "name": "",
          "type": "address"
        }
      ],
      "name": "users",
      "outputs": [
        {
          "internalType": "bool",
          "name": "isUser",
          "type": "bool"
        },
        {
          "internalType": "uint256",
          "name": "number",
          "type": "uint256"
        },
        {
          "internalType": "enum Deride.Status",
          "name": "state",
          "type": "uint8"
        }
      ],
      "stateMutability": "view",
      "type": "function"
    }
  ],
  "bytecode": "0x608060405234801561001057600080fd5b50611a20806100206000396000f3fe608060405234801561001057600080fd5b50600436106100885760003560e01c80639f4216e81161005b5780639f4216e8146100d9578063a87430ba14610109578063c6ae60f11461013b578063dec385e31461014557610088565b80634ba1f0981461008d5780637d6bbd3c146100a957806386b2a1d8146100c55780639e5d3610146100cf575b600080fd5b6100a760048036038101906100a29190611202565b61014f565b005b6100c360048036038101906100be9190611202565b610595565b005b6100cd6108f7565b005b6100d7610c04565b005b6100f360048036038101906100ee9190611202565b610e13565b6040516101009190611270565b60405180910390f35b610123600480360381019061011e91906112b7565b610e52565b60405161013293929190611385565b60405180910390f35b610143610e96565b005b61014d6110a4565b005b60011515600160003373ffffffffffffffffffffffffffffffffffffffff1673ffffffffffffffffffffffffffffffffffffffff16815260200190815260200160002060000160009054906101000a900460ff161515146101e5576040517f08c379a00000000000000000000000000000000000000000000000000000000081526004016101dc9061143f565b60405180910390fd5b600260038111156101f9576101f861130e565b5b600160003373ffffffffffffffffffffffffffffffffffffffff1673ffffffffffffffffffffffffffffffffffffffff16815260200190815260200160002060020160009054906101000a900460ff16600381111561025b5761025a61130e565b5b1461029b576040517f08c379a0000000000000000000000000000000000000000000000000000000008152600401610292906114d1565b60405180910390fd5b3373ffffffffffffffffffffffffffffffffffffffff16600282815481106102c6576102c56114f1565b5b9060005260206000200160009054906101000a900473ffffffffffffffffffffffffffffffffffffffff1673ffffffffffffffffffffffffffffffffffffffff1603610347576040517f08c379a000000000000000000000000000000000000000000000000000000000815260040161033e9061156c565b60405180910390fd5b6001600381111561035b5761035a61130e565b5b6001600060028481548110610373576103726114f1565b5b9060005260206000200160009054906101000a900473ffffffffffffffffffffffffffffffffffffffff1673ffffffffffffffffffffffffffffffffffffffff1673ffffffffffffffffffffffffffffffffffffffff16815260200190815260200160002060020160009054906101000a900460ff1660038111156103fb576103fa61130e565b5b1461043b576040517f08c379a0000000000000000000000000000000000000000000000000000000008152600401610432906115fe565b60405180910390fd5b6003600160003373ffffffffffffffffffffffffffffffffffffffff1673ffffffffffffffffffffffffffffffffffffffff16815260200190815260200160002060020160006101000a81548160ff021916908360038111156104a1576104a061130e565b5b02179055506003808111156104b9576104b861130e565b5b60016000600284815481106104d1576104d06114f1565b5b9060005260206000200160009054906101000a900473ffffffffffffffffffffffffffffffffffffffff1673ffffffffffffffffffffffffffffffffffffffff1673ffffffffffffffffffffffffffffffffffffffff16815260200190815260200160002060020160009054906101000a900460ff1660038111156105595761055861130e565b5b50507fbb3937fca28526e3521a94bfdbced55a6bae44a3e4f4a66c36874f12e5459ddd8160405161058a919061161e565b60405180910390a150565b60011515600160003373ffffffffffffffffffffffffffffffffffffffff1673ffffffffffffffffffffffffffffffffffffffff16815260200190815260200160002060000160009054906101000a900460ff1615151461062b576040517f08c379a000000000000000000000000000000000000000000000000000000000815260040161062290611685565b60405180910390fd5b60038081111561063e5761063d61130e565b5b600160003373ffffffffffffffffffffffffffffffffffffffff1673ffffffffffffffffffffffffffffffffffffffff16815260200190815260200160002060020160009054906101000a900460ff1660038111156106a05761069f61130e565b5b146106e0576040517f08c379a00000000000000000000000000000000000000000000000000000000081526004016106d7906116f1565b60405180910390fd5b6003808111156106f3576106f261130e565b5b600160006002848154811061070b5761070a6114f1565b5b9060005260206000200160009054906101000a900473ffffffffffffffffffffffffffffffffffffffff1673ffffffffffffffffffffffffffffffffffffffff1673ffffffffffffffffffffffffffffffffffffffff16815260200190815260200160002060020160009054906101000a900460ff1660038111156107935761079261130e565b5b146107d3576040517f08c379a00000000000000000000000000000000000000000000000000000000081526004016107ca9061175d565b60405180910390fd5b6000600160003373ffffffffffffffffffffffffffffffffffffffff1673ffffffffffffffffffffffffffffffffffffffff16815260200190815260200160002060020160006101000a81548160ff021916908360038111156108395761083861130e565b5b0217905550600060038111156108525761085161130e565b5b600160006002848154811061086a576108696114f1565b5b9060005260206000200160009054906101000a900473ffffffffffffffffffffffffffffffffffffffff1673ffffffffffffffffffffffffffffffffffffffff1673ffffffffffffffffffffffffffffffffffffffff16815260200190815260200160002060020160009054906101000a900460ff1660038111156108f2576108f161130e565b5b505050565b60011515600160003373ffffffffffffffffffffffffffffffffffffffff1673ffffffffffffffffffffffffffffffffffffffff16815260200190815260200160002060000160009054906101000a900460ff1615151461098d576040517f08c379a00000000000000000000000000000000000000000000000000000000081526004016109849061143f565b60405180910390fd5b600260038111156109a1576109a061130e565b5b600160003373ffffffffffffffffffffffffffffffffffffffff1673ffffffffffffffffffffffffffffffffffffffff16815260200190815260200160002060020160009054906101000a900460ff166003811115610a0357610a0261130e565b5b14610a43576040517f08c379a0000000000000000000000000000000000000000000000000000000008152600401610a3a906114d1565b60405180910390fd5b60005b600280549050811015610bc95760016003811115610a6757610a6661130e565b5b6001600060028481548110610a7f57610a7e6114f1565b5b9060005260206000200160009054906101000a900473ffffffffffffffffffffffffffffffffffffffff1673ffffffffffffffffffffffffffffffffffffffff1673ffffffffffffffffffffffffffffffffffffffff16815260200190815260200160002060020160009054906101000a900460ff166003811115610b0757610b0661130e565b5b03610bb65760006001600060028481548110610b2657610b256114f1565b5b9060005260206000200160009054906101000a900473ffffffffffffffffffffffffffffffffffffffff1673ffffffffffffffffffffffffffffffffffffffff1673ffffffffffffffffffffffffffffffffffffffff1681526020019081526020016000206001015490806001815401808255809150506001900390600052602060002001600090919091909150555b8080610bc1906117ac565b915050610a46565b507f50561d7c0e16db8b156e2c176ff947687fa2c363fabf7f466380849d159d6edd6000604051610bfa9190611902565b60405180910390a1565b60001515600160003373ffffffffffffffffffffffffffffffffffffffff1673ffffffffffffffffffffffffffffffffffffffff16815260200190815260200160002060000160009054906101000a900460ff16151503610da5576002339080600181540180825580915050600190039060005260206000200160009091909190916101000a81548173ffffffffffffffffffffffffffffffffffffffff021916908373ffffffffffffffffffffffffffffffffffffffff16021790555060405180606001604052806001151581526020016001600280549050610ce89190611924565b815260200160026003811115610d0157610d0061130e565b5b815250600160003373ffffffffffffffffffffffffffffffffffffffff1673ffffffffffffffffffffffffffffffffffffffff16815260200190815260200160002060008201518160000160006101000a81548160ff0219169083151502179055506020820151816001015560408201518160020160006101000a81548160ff02191690836003811115610d9857610d9761130e565b5b0217905550905050610e11565b6002600160003373ffffffffffffffffffffffffffffffffffffffff1673ffffffffffffffffffffffffffffffffffffffff16815260200190815260200160002060020160006101000a81548160ff02191690836003811115610e0b57610e0a61130e565b5b02179055505b565b60028181548110610e2357600080fd5b906000526020600020016000915054906101000a900473ffffffffffffffffffffffffffffffffffffffff1681565b60016020528060005260406000206000915090508060000160009054906101000a900460ff16908060010154908060020160009054906101000a900460ff16905083565b60001515600160003373ffffffffffffffffffffffffffffffffffffffff1673ffffffffffffffffffffffffffffffffffffffff16815260200190815260200160002060000160009054906101000a900460ff16151503611037576002339080600181540180825580915050600190039060005260206000200160009091909190916101000a81548173ffffffffffffffffffffffffffffffffffffffff021916908373ffffffffffffffffffffffffffffffffffffffff16021790555060405180606001604052806001151581526020016001600280549050610f7a9190611924565b815260200160016003811115610f9357610f9261130e565b5b815250600160003373ffffffffffffffffffffffffffffffffffffffff1673ffffffffffffffffffffffffffffffffffffffff16815260200190815260200160002060008201518160000160006101000a81548160ff0219169083151502179055506020820151816001015560408201518160020160006101000a81548160ff0219169083600381111561102a5761102961130e565b5b02179055509050506110a2565b60018060003373ffffffffffffffffffffffffffffffffffffffff1673ffffffffffffffffffffffffffffffffffffffff16815260200190815260200160002060020160006101000a81548160ff0219169083600381111561109c5761109b61130e565b5b02179055505b565b600160038111156110b8576110b761130e565b5b600160003373ffffffffffffffffffffffffffffffffffffffff1673ffffffffffffffffffffffffffffffffffffffff16815260200190815260200160002060020160009054906101000a900460ff16600381111561111a5761111961130e565b5b1461115a576040517f08c379a0000000000000000000000000000000000000000000000000000000008152600401611151906119ca565b60405180910390fd5b6000600160003373ffffffffffffffffffffffffffffffffffffffff1673ffffffffffffffffffffffffffffffffffffffff16815260200190815260200160002060020160006101000a81548160ff021916908360038111156111c0576111bf61130e565b5b0217905550565b600080fd5b6000819050919050565b6111df816111cc565b81146111ea57600080fd5b50565b6000813590506111fc816111d6565b92915050565b600060208284031215611218576112176111c7565b5b6000611226848285016111ed565b91505092915050565b600073ffffffffffffffffffffffffffffffffffffffff82169050919050565b600061125a8261122f565b9050919050565b61126a8161124f565b82525050565b60006020820190506112856000830184611261565b92915050565b6112948161124f565b811461129f57600080fd5b50565b6000813590506112b18161128b565b92915050565b6000602082840312156112cd576112cc6111c7565b5b60006112db848285016112a2565b91505092915050565b60008115159050919050565b6112f9816112e4565b82525050565b611308816111cc565b82525050565b7f4e487b7100000000000000000000000000000000000000000000000000000000600052602160045260246000fd5b6004811061134e5761134d61130e565b5b50565b600081905061135f8261133d565b919050565b600061136f82611351565b9050919050565b61137f81611364565b82525050565b600060608201905061139a60008301866112f0565b6113a760208301856112ff565b6113b46040830184611376565b949350505050565b600082825260208201905092915050565b7f4e65656420746f2062652061207573657220746f2073656c656374207269646560008201527f7200000000000000000000000000000000000000000000000000000000000000602082015250565b60006114296021836113bc565b9150611434826113cd565b604082019050919050565b600060208201905081810360008301526114588161141c565b9050919050565b7f55736572206e6565647320746f20626520696e20647269766572206d6f64652060008201527f746f207069636b20726964657200000000000000000000000000000000000000602082015250565b60006114bb602d836113bc565b91506114c68261145f565b604082019050919050565b600060208201905081810360008301526114ea816114ae565b9050919050565b7f4e487b7100000000000000000000000000000000000000000000000000000000600052603260045260246000fd5b7f43616e6e6f74207069636b20796f757273656c66000000000000000000000000600082015250565b60006115566014836113bc565b915061156182611520565b602082019050919050565b6000602082019050818103600083015261158581611549565b9050919050565b7f75736572206265696e67207069636b65642068617320746f206265206120726960008201527f6465720000000000000000000000000000000000000000000000000000000000602082015250565b60006115e86023836113bc565b91506115f38261158c565b604082019050919050565b60006020820190508181036000830152611617816115db565b9050919050565b600060208201905061163360008301846112ff565b92915050565b7f4e65656420746f20626520612075736572206669727374000000000000000000600082015250565b600061166f6017836113bc565b915061167a82611639565b602082019050919050565b6000602082019050818103600083015261169e81611662565b9050919050565b7f447269766572206e6565647320746f206265206f6e2072696465206669727374600082015250565b60006116db6020836113bc565b91506116e6826116a5565b602082019050919050565b6000602082019050818103600083015261170a816116ce565b9050919050565b7f52696465722073686f756c64206265206f6e2072696465206669727374000000600082015250565b6000611747601d836113bc565b915061175282611711565b602082019050919050565b600060208201905081810360008301526117768161173a565b9050919050565b7f4e487b7100000000000000000000000000000000000000000000000000000000600052601160045260246000fd5b60006117b7826111cc565b91507fffffffffffffffffffffffffffffffffffffffffffffffffffffffffffffffff82036117e9576117e861177d565b5b600182019050919050565b600081549050919050565b600082825260208201905092915050565b60008190508160005260206000209050919050565b61182e816111cc565b82525050565b60006118408383611825565b60208301905092915050565b60008160001c9050919050565b6000819050919050565b60006118766118718361184c565b611859565b9050919050565b60006118898254611863565b9050919050565b6000600182019050919050565b60006118a8826117f4565b6118b281856117ff565b93506118bd83611810565b8060005b838110156118f5576118d28261187d565b6118dc8882611834565b97506118e783611890565b9250506001810190506118c1565b5085935050505092915050565b6000602082019050818103600083015261191c818461189d565b905092915050565b600061192f826111cc565b915061193a836111cc565b92508282039050818111156119525761195161177d565b5b92915050565b7f55736572206e65656420746f207265717565737420612064726976652062656660008201527f6f72652063616e63656c6c696e67000000000000000000000000000000000000602082015250565b60006119b4602e836113bc565b91506119bf82611958565b604082019050919050565b600060208201905081810360008301526119e3816119a7565b905091905056fea2646970667358221220cff0f4af721a601a52bd4e59114ceeb206dd2d8cdbaf4fdc809110396ccc689d64736f6c63430008110033",
  "linkReferences": {},
  "deployedLinkReferences": {}
}