{
  "_format": "hh-sol-artifact-1",
  "contractName": "Deride",
  "sourceName": "contracts/deride.sol",
  "abi": [
    {
      "anonymous": false,
      "inputs": [
        {
          "indexed": false,
          "internalType": "address[]",
          "name": "WaitingRiders",
          "type": "address[]"
        }
      ],
      "name": "RiderDetails",
      "type": "event"
    },
    {
      "anonymous": false,
      "inputs": [
        {
          "indexed": false,
          "internalType": "uint256",
          "name": "riderNumber",
          "type": "uint256"
        }
      ],
      "name": "RiderPicked",
      "type": "event"
    },
    {
      "inputs": [
        {
          "internalType": "uint256",
          "name": "riderNumber",
          "type": "uint256"
        }
      ],
      "name": "acceptRequest",
      "outputs": [],
      "stateMutability": "nonpayable",
      "type": "function"
    },
    {
      "inputs": [
        {
          "internalType": "uint256",
          "name": "cost",
          "type": "uint256"
        }
      ],
      "name": "cancelRideRequest",
      "outputs": [],
      "stateMutability": "nonpayable",
      "type": "function"
    },
    {
      "inputs": [],
      "name": "driveRequest",
      "outputs": [],
      "stateMutability": "nonpayable",
      "type": "function"
    },
    {
      "inputs": [
        {
          "internalType": "uint256",
          "name": "riderNumber",
          "type": "uint256"
        },
        {
          "internalType": "uint256",
          "name": "cost",
          "type": "uint256"
        }
      ],
      "name": "markRideCompleted",
      "outputs": [],
      "stateMutability": "nonpayable",
      "type": "function"
    },
    {
      "inputs": [
        {
          "internalType": "uint256",
          "name": "cost",
          "type": "uint256"
        }
      ],
      "name": "rideRequest",
      "outputs": [],
      "stateMutability": "nonpayable",
      "type": "function"
    },
    {
      "inputs": [
        {
          "internalType": "address",
          "name": "DRDContractAddress",
          "type": "address"
        }
      ],
      "name": "setDRDtokenAddress",
      "outputs": [],
      "stateMutability": "nonpayable",
      "type": "function"
    },
    {
      "inputs": [
        {
          "internalType": "uint256",
          "name": "user_id",
          "type": "uint256"
        },
        {
          "internalType": "uint256",
          "name": "_state",
          "type": "uint256"
        }
      ],
      "name": "setState",
      "outputs": [],
      "stateMutability": "nonpayable",
      "type": "function"
    },
    {
      "inputs": [],
      "name": "showAllRequests",
      "outputs": [],
      "stateMutability": "nonpayable",
      "type": "function"
    },
    {
      "inputs": [
        {
          "internalType": "address",
          "name": "to",
          "type": "address"
        },
        {
          "internalType": "uint256",
          "name": "amount",
          "type": "uint256"
        }
      ],
      "name": "transferDRD",
      "outputs": [],
      "stateMutability": "nonpayable",
      "type": "function"
    },
    {
      "inputs": [
        {
          "internalType": "uint256",
          "name": "",
          "type": "uint256"
        }
      ],
      "name": "userList",
      "outputs": [
        {
          "internalType": "address",
          "name": "",
          "type": "address"
        }
      ],
      "stateMutability": "view",
      "type": "function"
    },
    {
      "inputs": [
        {
          "internalType": "address",
          "name": "",
          "type": "address"
        }
      ],
      "name": "users",
      "outputs": [
        {
          "internalType": "bool",
          "name": "isUser",
          "type": "bool"
        },
        {
          "internalType": "uint256",
          "name": "number",
          "type": "uint256"
        },
        {
          "internalType": "enum Deride.Status",
          "name": "state",
          "type": "uint8"
        }
      ],
      "stateMutability": "view",
      "type": "function"
    }
  ],
  "bytecode": "0x608060405234801561001057600080fd5b50612264806100206000396000f3fe608060405234801561001057600080fd5b50600436106100a95760003560e01c8063a87430ba11610071578063a87430ba1461012a578063af428a601461015c578063b9d77bfc14610178578063e4517e4314610194578063e66eb206146101b0578063f25b5208146101cc576100a9565b80634ba1f098146100ae57806386b2a1d8146100ca5780639e5d3610146100d45780639f4216e8146100de578063a5ba83f61461010e575b600080fd5b6100c860048036038101906100c391906117e9565b6101e8565b005b6100d2610622565b005b6100dc610935565b005b6100f860048036038101906100f391906117e9565b610b43565b6040516101059190611857565b60405180910390f35b61012860048036038101906101239190611872565b610b82565b005b610144600480360381019061013f91906118de565b610f07565b604051610153939291906119ac565b60405180910390f35b610176600480360381019061017191906118de565b610f4b565b005b610192600480360381019061018d9190611872565b610ffd565b005b6101ae60048036038101906101a991906117e9565b6112c8565b005b6101ca60048036038101906101c591906119e3565b611580565b005b6101e660048036038101906101e191906117e9565b61162a565b005b60011515600260003373ffffffffffffffffffffffffffffffffffffffff1673ffffffffffffffffffffffffffffffffffffffff16815260200190815260200160002060000160009054906101000a900460ff1615151461027e576040517f08c379a000000000000000000000000000000000000000000000000000000000815260040161027590611aa6565b60405180910390fd5b6002600381111561029257610291611935565b5b600260003373ffffffffffffffffffffffffffffffffffffffff1673ffffffffffffffffffffffffffffffffffffffff16815260200190815260200160002060020160009054906101000a900460ff1660038111156102f4576102f3611935565b5b14610334576040517f08c379a000000000000000000000000000000000000000000000000000000000815260040161032b90611b38565b60405180910390fd5b3373ffffffffffffffffffffffffffffffffffffffff166003828154811061035f5761035e611b58565b5b9060005260206000200160009054906101000a900473ffffffffffffffffffffffffffffffffffffffff1673ffffffffffffffffffffffffffffffffffffffff16036103e0576040517f08c379a00000000000000000000000000000000000000000000000000000000081526004016103d790611bd3565b60405180910390fd5b600160038111156103f4576103f3611935565b5b600260006003848154811061040c5761040b611b58565b5b9060005260206000200160009054906101000a900473ffffffffffffffffffffffffffffffffffffffff1673ffffffffffffffffffffffffffffffffffffffff1673ffffffffffffffffffffffffffffffffffffffff16815260200190815260200160002060020160009054906101000a900460ff16600381111561049457610493611935565b5b146104d4576040517f08c379a00000000000000000000000000000000000000000000000000000000081526004016104cb90611c65565b60405180910390fd5b6003600260003373ffffffffffffffffffffffffffffffffffffffff1673ffffffffffffffffffffffffffffffffffffffff16815260200190815260200160002060020160006101000a81548160ff0219169083600381111561053a57610539611935565b5b02179055506003600260006003848154811061055957610558611b58565b5b9060005260206000200160009054906101000a900473ffffffffffffffffffffffffffffffffffffffff1673ffffffffffffffffffffffffffffffffffffffff1673ffffffffffffffffffffffffffffffffffffffff16815260200190815260200160002060020160006101000a81548160ff021916908360038111156105e3576105e2611935565b5b02179055507fbb3937fca28526e3521a94bfdbced55a6bae44a3e4f4a66c36874f12e5459ddd816040516106179190611c85565b60405180910390a150565b60011515600260003373ffffffffffffffffffffffffffffffffffffffff1673ffffffffffffffffffffffffffffffffffffffff16815260200190815260200160002060000160009054906101000a900460ff161515146106b8576040517f08c379a00000000000000000000000000000000000000000000000000000000081526004016106af90611aa6565b60405180910390fd5b600260038111156106cc576106cb611935565b5b600260003373ffffffffffffffffffffffffffffffffffffffff1673ffffffffffffffffffffffffffffffffffffffff16815260200190815260200160002060020160009054906101000a900460ff16600381111561072e5761072d611935565b5b1461076e576040517f08c379a000000000000000000000000000000000000000000000000000000000815260040161076590611b38565b60405180910390fd5b6001600061077c9190611770565b60005b6003805490508110156108fa57600160038111156107a05761079f611935565b5b60026000600384815481106107b8576107b7611b58565b5b9060005260206000200160009054906101000a900473ffffffffffffffffffffffffffffffffffffffff1673ffffffffffffffffffffffffffffffffffffffff1673ffffffffffffffffffffffffffffffffffffffff16815260200190815260200160002060020160009054906101000a900460ff1660038111156108405761083f611935565b5b036108e75760016003828154811061085b5761085a611b58565b5b9060005260206000200160009054906101000a900473ffffffffffffffffffffffffffffffffffffffff169080600181540180825580915050600190039060005260206000200160009091909190916101000a81548173ffffffffffffffffffffffffffffffffffffffff021916908373ffffffffffffffffffffffffffffffffffffffff1602179055505b80806108f290611ccf565b91505061077f565b507fedaba38160c05bed9435ec09a9b3f9ace1f8a0c55df0c57673f77607f0d71a43600160405161092b9190611e3b565b60405180910390a1565b60001515600260003373ffffffffffffffffffffffffffffffffffffffff1673ffffffffffffffffffffffffffffffffffffffff16815260200190815260200160002060000160009054906101000a900460ff16151503610ad6576003339080600181540180825580915050600190039060005260206000200160009091909190916101000a81548173ffffffffffffffffffffffffffffffffffffffff021916908373ffffffffffffffffffffffffffffffffffffffff16021790555060405180606001604052806001151581526020016001600380549050610a199190611e5d565b815260200160026003811115610a3257610a31611935565b5b815250600260003373ffffffffffffffffffffffffffffffffffffffff1673ffffffffffffffffffffffffffffffffffffffff16815260200190815260200160002060008201518160000160006101000a81548160ff0219169083151502179055506020820151816001015560408201518160020160006101000a81548160ff02191690836003811115610ac957610ac8611935565b5b0217905550905050610b41565b60028060003373ffffffffffffffffffffffffffffffffffffffff1673ffffffffffffffffffffffffffffffffffffffff16815260200190815260200160002060020160006101000a81548160ff02191690836003811115610b3b57610b3a611935565b5b02179055505b565b60038181548110610b5357600080fd5b906000526020600020016000915054906101000a900473ffffffffffffffffffffffffffffffffffffffff1681565b60011515600260003373ffffffffffffffffffffffffffffffffffffffff1673ffffffffffffffffffffffffffffffffffffffff16815260200190815260200160002060000160009054906101000a900460ff16151514610c18576040517f08c379a0000000000000000000000000000000000000000000000000000000008152600401610c0f90611edd565b60405180910390fd5b600380811115610c2b57610c2a611935565b5b600260003373ffffffffffffffffffffffffffffffffffffffff1673ffffffffffffffffffffffffffffffffffffffff16815260200190815260200160002060020160009054906101000a900460ff166003811115610c8d57610c8c611935565b5b14610ccd576040517f08c379a0000000000000000000000000000000000000000000000000000000008152600401610cc490611f49565b60405180910390fd5b600380811115610ce057610cdf611935565b5b6002600060038581548110610cf857610cf7611b58565b5b9060005260206000200160009054906101000a900473ffffffffffffffffffffffffffffffffffffffff1673ffffffffffffffffffffffffffffffffffffffff1673ffffffffffffffffffffffffffffffffffffffff16815260200190815260200160002060020160009054906101000a900460ff166003811115610d8057610d7f611935565b5b14610dc0576040517f08c379a0000000000000000000000000000000000000000000000000000000008152600401610db790611fb5565b60405180910390fd5b610de2336064605584610dd39190611fd5565b610ddd9190612046565b611580565b6000600260003373ffffffffffffffffffffffffffffffffffffffff1673ffffffffffffffffffffffffffffffffffffffff16815260200190815260200160002060020160006101000a81548160ff02191690836003811115610e4857610e47611935565b5b021790555060006003811115610e6157610e60611935565b5b6002600060038581548110610e7957610e78611b58565b5b9060005260206000200160009054906101000a900473ffffffffffffffffffffffffffffffffffffffff1673ffffffffffffffffffffffffffffffffffffffff1673ffffffffffffffffffffffffffffffffffffffff16815260200190815260200160002060020160009054906101000a900460ff166003811115610f0157610f00611935565b5b50505050565b60026020528060005260406000206000915090508060000160009054906101000a900460ff16908060010154908060020160009054906101000a900460ff16905083565b600073ffffffffffffffffffffffffffffffffffffffff168173ffffffffffffffffffffffffffffffffffffffff1603610fba576040517f08c379a0000000000000000000000000000000000000000000000000000000008152600401610fb1906120c3565b60405180910390fd5b806000806101000a81548173ffffffffffffffffffffffffffffffffffffffff021916908373ffffffffffffffffffffffffffffffffffffffff16021790555050565b600081036110af576000600260006003858154811061101f5761101e611b58565b5b9060005260206000200160009054906101000a900473ffffffffffffffffffffffffffffffffffffffff1673ffffffffffffffffffffffffffffffffffffffff1673ffffffffffffffffffffffffffffffffffffffff16815260200190815260200160002060020160006101000a81548160ff021916908360038111156110a9576110a8611935565b5b02179055505b6001810361116157600160026000600385815481106110d1576110d0611b58565b5b9060005260206000200160009054906101000a900473ffffffffffffffffffffffffffffffffffffffff1673ffffffffffffffffffffffffffffffffffffffff1673ffffffffffffffffffffffffffffffffffffffff16815260200190815260200160002060020160006101000a81548160ff0219169083600381111561115b5761115a611935565b5b02179055505b600281036112125760028060006003858154811061118257611181611b58565b5b9060005260206000200160009054906101000a900473ffffffffffffffffffffffffffffffffffffffff1673ffffffffffffffffffffffffffffffffffffffff1673ffffffffffffffffffffffffffffffffffffffff16815260200190815260200160002060020160006101000a81548160ff0219169083600381111561120c5761120b611935565b5b02179055505b600381036112c4576003600260006003858154811061123457611233611b58565b5b9060005260206000200160009054906101000a900473ffffffffffffffffffffffffffffffffffffffff1673ffffffffffffffffffffffffffffffffffffffff1673ffffffffffffffffffffffffffffffffffffffff16815260200190815260200160002060020160006101000a81548160ff021916908360038111156112be576112bd611935565b5b02179055505b5050565b60008060009054906101000a900473ffffffffffffffffffffffffffffffffffffffff16905060001515600260003373ffffffffffffffffffffffffffffffffffffffff1673ffffffffffffffffffffffffffffffffffffffff16815260200190815260200160002060000160009054906101000a900460ff1615150361148f576003339080600181540180825580915050600190039060005260206000200160009091909190916101000a81548173ffffffffffffffffffffffffffffffffffffffff021916908373ffffffffffffffffffffffffffffffffffffffff160217905550604051806060016040528060011515815260200160016003805490506113d29190611e5d565b8152602001600160038111156113eb576113ea611935565b5b815250600260003373ffffffffffffffffffffffffffffffffffffffff1673ffffffffffffffffffffffffffffffffffffffff16815260200190815260200160002060008201518160000160006101000a81548160ff0219169083151502179055506020820151816001015560408201518160020160006101000a81548160ff0219169083600381111561148257611481611935565b5b02179055509050506114fb565b6001600260003373ffffffffffffffffffffffffffffffffffffffff1673ffffffffffffffffffffffffffffffffffffffff16815260200190815260200160002060020160006101000a81548160ff021916908360038111156114f5576114f4611935565b5b02179055505b8073ffffffffffffffffffffffffffffffffffffffff166323b872dd3330856040518463ffffffff1660e01b8152600401611538939291906120e3565b6020604051808303816000875af1158015611557573d6000803e3d6000fd5b505050506040513d601f19601f8201168201806040525081019061157b9190612146565b505050565b60008060009054906101000a900473ffffffffffffffffffffffffffffffffffffffff1690508073ffffffffffffffffffffffffffffffffffffffff1663a9059cbb84846040518363ffffffff1660e01b81526004016115e1929190612173565b6020604051808303816000875af1158015611600573d6000803e3d6000fd5b505050506040513d601f19601f820116820180604052508101906116249190612146565b50505050565b6001600381111561163e5761163d611935565b5b600260003373ffffffffffffffffffffffffffffffffffffffff1673ffffffffffffffffffffffffffffffffffffffff16815260200190815260200160002060020160009054906101000a900460ff1660038111156116a05761169f611935565b5b146116e0576040517f08c379a00000000000000000000000000000000000000000000000000000000081526004016116d79061220e565b60405180910390fd5b6000600260003373ffffffffffffffffffffffffffffffffffffffff1673ffffffffffffffffffffffffffffffffffffffff16815260200190815260200160002060020160006101000a81548160ff0219169083600381111561174657611745611935565b5b021790555061176d336064605f8461175e9190611fd5565b6117689190612046565b611580565b50565b508054600082559060005260206000209081019061178e9190611791565b50565b5b808211156117aa576000816000905550600101611792565b5090565b600080fd5b6000819050919050565b6117c6816117b3565b81146117d157600080fd5b50565b6000813590506117e3816117bd565b92915050565b6000602082840312156117ff576117fe6117ae565b5b600061180d848285016117d4565b91505092915050565b600073ffffffffffffffffffffffffffffffffffffffff82169050919050565b600061184182611816565b9050919050565b61185181611836565b82525050565b600060208201905061186c6000830184611848565b92915050565b60008060408385031215611889576118886117ae565b5b6000611897858286016117d4565b92505060206118a8858286016117d4565b9150509250929050565b6118bb81611836565b81146118c657600080fd5b50565b6000813590506118d8816118b2565b92915050565b6000602082840312156118f4576118f36117ae565b5b6000611902848285016118c9565b91505092915050565b60008115159050919050565b6119208161190b565b82525050565b61192f816117b3565b82525050565b7f4e487b7100000000000000000000000000000000000000000000000000000000600052602160045260246000fd5b6004811061197557611974611935565b5b50565b600081905061198682611964565b919050565b600061199682611978565b9050919050565b6119a68161198b565b82525050565b60006060820190506119c16000830186611917565b6119ce6020830185611926565b6119db604083018461199d565b949350505050565b600080604083850312156119fa576119f96117ae565b5b6000611a08858286016118c9565b9250506020611a19858286016117d4565b9150509250929050565b600082825260208201905092915050565b7f4e65656420746f2062652061207573657220746f2073656c656374207269646560008201527f7200000000000000000000000000000000000000000000000000000000000000602082015250565b6000611a90602183611a23565b9150611a9b82611a34565b604082019050919050565b60006020820190508181036000830152611abf81611a83565b9050919050565b7f55736572206e6565647320746f20626520696e20647269766572206d6f64652060008201527f746f207069636b20726964657200000000000000000000000000000000000000602082015250565b6000611b22602d83611a23565b9150611b2d82611ac6565b604082019050919050565b60006020820190508181036000830152611b5181611b15565b9050919050565b7f4e487b7100000000000000000000000000000000000000000000000000000000600052603260045260246000fd5b7f43616e6e6f74207069636b20796f757273656c66000000000000000000000000600082015250565b6000611bbd601483611a23565b9150611bc882611b87565b602082019050919050565b60006020820190508181036000830152611bec81611bb0565b9050919050565b7f75736572206265696e67207069636b65642068617320746f206265206120726960008201527f6465720000000000000000000000000000000000000000000000000000000000602082015250565b6000611c4f602383611a23565b9150611c5a82611bf3565b604082019050919050565b60006020820190508181036000830152611c7e81611c42565b9050919050565b6000602082019050611c9a6000830184611926565b92915050565b7f4e487b7100000000000000000000000000000000000000000000000000000000600052601160045260246000fd5b6000611cda826117b3565b91507fffffffffffffffffffffffffffffffffffffffffffffffffffffffffffffffff8203611d0c57611d0b611ca0565b5b600182019050919050565b600081549050919050565b600082825260208201905092915050565b60008190508160005260206000209050919050565b611d5181611836565b82525050565b6000611d638383611d48565b60208301905092915050565b60008160001c9050919050565b600073ffffffffffffffffffffffffffffffffffffffff82169050919050565b6000611daf611daa83611d6f565b611d7c565b9050919050565b6000611dc28254611d9c565b9050919050565b6000600182019050919050565b6000611de182611d17565b611deb8185611d22565b9350611df683611d33565b8060005b83811015611e2e57611e0b82611db6565b611e158882611d57565b9750611e2083611dc9565b925050600181019050611dfa565b5085935050505092915050565b60006020820190508181036000830152611e558184611dd6565b905092915050565b6000611e68826117b3565b9150611e73836117b3565b9250828203905081811115611e8b57611e8a611ca0565b5b92915050565b7f4e65656420746f20626520612075736572206669727374000000000000000000600082015250565b6000611ec7601783611a23565b9150611ed282611e91565b602082019050919050565b60006020820190508181036000830152611ef681611eba565b9050919050565b7f447269766572206e6565647320746f206265206f6e2072696465206669727374600082015250565b6000611f33602083611a23565b9150611f3e82611efd565b602082019050919050565b60006020820190508181036000830152611f6281611f26565b9050919050565b7f52696465722073686f756c64206265206f6e2072696465206669727374000000600082015250565b6000611f9f601d83611a23565b9150611faa82611f69565b602082019050919050565b60006020820190508181036000830152611fce81611f92565b9050919050565b6000611fe0826117b3565b9150611feb836117b3565b9250828202611ff9816117b3565b915082820484148315176120105761200f611ca0565b5b5092915050565b7f4e487b7100000000000000000000000000000000000000000000000000000000600052601260045260246000fd5b6000612051826117b3565b915061205c836117b3565b92508261206c5761206b612017565b5b828204905092915050565b7f496e76616c696420436f6e747261637420416464726573730000000000000000600082015250565b60006120ad601883611a23565b91506120b882612077565b602082019050919050565b600060208201905081810360008301526120dc816120a0565b9050919050565b60006060820190506120f86000830186611848565b6121056020830185611848565b6121126040830184611926565b949350505050565b6121238161190b565b811461212e57600080fd5b50565b6000815190506121408161211a565b92915050565b60006020828403121561215c5761215b6117ae565b5b600061216a84828501612131565b91505092915050565b60006040820190506121886000830185611848565b6121956020830184611926565b9392505050565b7f55736572206e65656420746f207265717565737420612064726976652062656660008201527f6f72652063616e63656c6c696e67000000000000000000000000000000000000602082015250565b60006121f8602e83611a23565b91506122038261219c565b604082019050919050565b60006020820190508181036000830152612227816121eb565b905091905056fea2646970667358221220ece5a1bc689c49b07afd6a57a607bb72214a07dcc1c9071c3e437e079c487cdb64736f6c63430008110033",
  "linkReferences": {},
  "deployedLinkReferences": {}
}