{
  "_format": "hh-sol-artifact-1",
  "contractName": "Deride",
  "sourceName": "contracts/deride.sol",
  "abi": [
    {
      "inputs": [],
      "name": "driveRequest",
      "outputs": [],
      "stateMutability": "nonpayable",
      "type": "function"
    },
    {
      "inputs": [
        {
          "internalType": "int256[]",
          "name": "pick",
          "type": "int256[]"
        },
        {
          "internalType": "int256[]",
          "name": "drop",
          "type": "int256[]"
        },
        {
          "internalType": "uint256",
          "name": "tripCost",
          "type": "uint256"
        }
      ],
      "name": "rideRequest",
      "outputs": [],
      "stateMutability": "nonpayable",
      "type": "function"
    },
    {
      "inputs": [
        {
          "internalType": "uint256",
          "name": "",
          "type": "uint256"
        }
      ],
      "name": "userList",
      "outputs": [
        {
          "internalType": "address",
          "name": "",
          "type": "address"
        }
      ],
      "stateMutability": "view",
      "type": "function"
    },
    {
      "inputs": [],
      "name": "user_count",
      "outputs": [
        {
          "internalType": "uint256",
          "name": "",
          "type": "uint256"
        }
      ],
      "stateMutability": "view",
      "type": "function"
    },
    {
      "inputs": [
        {
          "internalType": "address",
          "name": "",
          "type": "address"
        }
      ],
      "name": "users",
      "outputs": [
        {
          "internalType": "bool",
          "name": "isUser",
          "type": "bool"
        },
        {
          "internalType": "uint256",
          "name": "number",
          "type": "uint256"
        },
        {
          "internalType": "enum Deride.Status",
          "name": "state",
          "type": "uint8"
        },
        {
          "internalType": "address",
          "name": "currPairing",
          "type": "address"
        },
        {
          "components": [
            {
              "internalType": "int256",
              "name": "lat",
              "type": "int256"
            },
            {
              "internalType": "int256",
              "name": "long",
              "type": "int256"
            }
          ],
          "internalType": "struct Deride.coordinates",
          "name": "pickup",
          "type": "tuple"
        },
        {
          "components": [
            {
              "internalType": "int256",
              "name": "lat",
              "type": "int256"
            },
            {
              "internalType": "int256",
              "name": "long",
              "type": "int256"
            }
          ],
          "internalType": "struct Deride.coordinates",
          "name": "dropoff",
          "type": "tuple"
        },
        {
          "internalType": "uint256",
          "name": "arrivalTime",
          "type": "uint256"
        },
        {
          "internalType": "bool",
          "name": "driverArrived",
          "type": "bool"
        },
        {
          "internalType": "bool",
          "name": "inProgress",
          "type": "bool"
        }
      ],
      "stateMutability": "view",
      "type": "function"
    }
  ],
  "bytecode": "0x6080604052600060025534801561001557600080fd5b5061133e806100256000396000f3fe608060405234801561001057600080fd5b50600436106100575760003560e01c80639e5d36101461005c5780639f4216e814610066578063a87430ba14610096578063bb805f69146100ce578063de9e7da0146100ec575b600080fd5b610064610108565b005b610080600480360381019061007b9190610ddd565b610652565b60405161008d9190610e4b565b60405180910390f35b6100b060048036038101906100ab9190610e92565b610691565b6040516100c599989796959493929190610fa8565b60405180910390f35b6100d661076f565b6040516100e39190611037565b60405180910390f35b610106600480360381019061010191906111d7565b610775565b005b600015156000803373ffffffffffffffffffffffffffffffffffffffff1673ffffffffffffffffffffffffffffffffffffffff16815260200190815260200160002060000160009054906101000a900460ff1615150361038b576002600081548092919061017590611291565b919050555060405180610120016040528060011515815260200160025481526020016002808111156101aa576101a9610ee9565b5b8152602001600073ffffffffffffffffffffffffffffffffffffffff168152602001604051806040016040528060008152602001600081525081526020016040518060400160405280600081526020016000815250815260200160008152602001600115158152602001600015158152506000803373ffffffffffffffffffffffffffffffffffffffff1673ffffffffffffffffffffffffffffffffffffffff16815260200190815260200160002060008201518160000160006101000a81548160ff0219169083151502179055506020820151816001015560408201518160020160006101000a81548160ff021916908360028111156102ae576102ad610ee9565b5b021790555060608201518160020160016101000a81548173ffffffffffffffffffffffffffffffffffffffff021916908373ffffffffffffffffffffffffffffffffffffffff1602179055506080820151816003016000820151816000015560208201518160010155505060a0820151816005016000820151816000015560208201518160010155505060c0820151816007015560e08201518160080160006101000a81548160ff0219169083151502179055506101008201518160080160016101000a81548160ff021916908315150217905550905050610650565b60026000803373ffffffffffffffffffffffffffffffffffffffff1673ffffffffffffffffffffffffffffffffffffffff16815260200190815260200160002060020160006101000a81548160ff021916908360028111156103f0576103ef610ee9565b5b021790555060008060003373ffffffffffffffffffffffffffffffffffffffff1673ffffffffffffffffffffffffffffffffffffffff16815260200190815260200160002060020160016101000a81548173ffffffffffffffffffffffffffffffffffffffff021916908373ffffffffffffffffffffffffffffffffffffffff16021790555060405180604001604052806000815260200160008152506000803373ffffffffffffffffffffffffffffffffffffffff1673ffffffffffffffffffffffffffffffffffffffff168152602001908152602001600020600301600082015181600001556020820151816001015590505060405180604001604052806000815260200160008152506000803373ffffffffffffffffffffffffffffffffffffffff1673ffffffffffffffffffffffffffffffffffffffff168152602001908152602001600020600501600082015181600001556020820151816001015590505060008060003373ffffffffffffffffffffffffffffffffffffffff1673ffffffffffffffffffffffffffffffffffffffff1681526020019081526020016000206007018190555060016000803373ffffffffffffffffffffffffffffffffffffffff1673ffffffffffffffffffffffffffffffffffffffff16815260200190815260200160002060080160006101000a81548160ff02191690831515021790555060008060003373ffffffffffffffffffffffffffffffffffffffff1673ffffffffffffffffffffffffffffffffffffffff16815260200190815260200160002060080160016101000a81548160ff0219169083151502179055505b565b6001818154811061066257600080fd5b906000526020600020016000915054906101000a900473ffffffffffffffffffffffffffffffffffffffff1681565b60006020528060005260406000206000915090508060000160009054906101000a900460ff16908060010154908060020160009054906101000a900460ff16908060020160019054906101000a900473ffffffffffffffffffffffffffffffffffffffff16908060030160405180604001604052908160008201548152602001600182015481525050908060050160405180604001604052908160008201548152602001600182015481525050908060070154908060080160009054906101000a900460ff16908060080160019054906101000a900460ff16905089565b60025481565b600015156000803373ffffffffffffffffffffffffffffffffffffffff1673ffffffffffffffffffffffffffffffffffffffff16815260200190815260200160002060000160009054906101000a900460ff16151503610a6157600260008154809291906107e290611291565b919050555060405180610120016040528060011515815260200160025481526020016001600281111561081857610817610ee9565b5b8152602001600073ffffffffffffffffffffffffffffffffffffffff168152602001604051806040016040528086600081518110610859576108586112d9565b5b602002602001015181526020018660018151811061087a576108796112d9565b5b602002602001015181525081526020016040518060400160405280856000815181106108a9576108a86112d9565b5b60200260200101518152602001856001815181106108ca576108c96112d9565b5b6020026020010151815250815260200160008152602001600015158152602001600015158152506000803373ffffffffffffffffffffffffffffffffffffffff1673ffffffffffffffffffffffffffffffffffffffff16815260200190815260200160002060008201518160000160006101000a81548160ff0219169083151502179055506020820151816001015560408201518160020160006101000a81548160ff0219169083600281111561098457610983610ee9565b5b021790555060608201518160020160016101000a81548173ffffffffffffffffffffffffffffffffffffffff021916908373ffffffffffffffffffffffffffffffffffffffff1602179055506080820151816003016000820151816000015560208201518160010155505060a0820151816005016000820151816000015560208201518160010155505060c0820151816007015560e08201518160080160006101000a81548160ff0219169083151502179055506101008201518160080160016101000a81548160ff021916908315150217905550905050610d8e565b60016000803373ffffffffffffffffffffffffffffffffffffffff1673ffffffffffffffffffffffffffffffffffffffff16815260200190815260200160002060020160006101000a81548160ff02191690836002811115610ac657610ac5610ee9565b5b021790555060008060003373ffffffffffffffffffffffffffffffffffffffff1673ffffffffffffffffffffffffffffffffffffffff16815260200190815260200160002060020160016101000a81548173ffffffffffffffffffffffffffffffffffffffff021916908373ffffffffffffffffffffffffffffffffffffffff160217905550604051806040016040528084600081518110610b6b57610b6a6112d9565b5b6020026020010151815260200184600181518110610b8c57610b8b6112d9565b5b60200260200101518152506000803373ffffffffffffffffffffffffffffffffffffffff1673ffffffffffffffffffffffffffffffffffffffff1681526020019081526020016000206003016000820151816000015560208201518160010155905050604051806040016040528083600081518110610c0e57610c0d6112d9565b5b6020026020010151815260200183600181518110610c2f57610c2e6112d9565b5b60200260200101518152506000803373ffffffffffffffffffffffffffffffffffffffff1673ffffffffffffffffffffffffffffffffffffffff168152602001908152602001600020600501600082015181600001556020820151816001015590505060008060003373ffffffffffffffffffffffffffffffffffffffff1673ffffffffffffffffffffffffffffffffffffffff1681526020019081526020016000206007018190555060008060003373ffffffffffffffffffffffffffffffffffffffff1673ffffffffffffffffffffffffffffffffffffffff16815260200190815260200160002060080160006101000a81548160ff02191690831515021790555060008060003373ffffffffffffffffffffffffffffffffffffffff1673ffffffffffffffffffffffffffffffffffffffff16815260200190815260200160002060080160016101000a81548160ff0219169083151502179055505b505050565b6000604051905090565b600080fd5b600080fd5b6000819050919050565b610dba81610da7565b8114610dc557600080fd5b50565b600081359050610dd781610db1565b92915050565b600060208284031215610df357610df2610d9d565b5b6000610e0184828501610dc8565b91505092915050565b600073ffffffffffffffffffffffffffffffffffffffff82169050919050565b6000610e3582610e0a565b9050919050565b610e4581610e2a565b82525050565b6000602082019050610e606000830184610e3c565b92915050565b610e6f81610e2a565b8114610e7a57600080fd5b50565b600081359050610e8c81610e66565b92915050565b600060208284031215610ea857610ea7610d9d565b5b6000610eb684828501610e7d565b91505092915050565b60008115159050919050565b610ed481610ebf565b82525050565b610ee381610da7565b82525050565b7f4e487b7100000000000000000000000000000000000000000000000000000000600052602160045260246000fd5b60038110610f2957610f28610ee9565b5b50565b6000819050610f3a82610f18565b919050565b6000610f4a82610f2c565b9050919050565b610f5a81610f3f565b82525050565b6000819050919050565b610f7381610f60565b82525050565b604082016000820151610f8f6000850182610f6a565b506020820151610fa26020850182610f6a565b50505050565b600061016082019050610fbe600083018c610ecb565b610fcb602083018b610eda565b610fd8604083018a610f51565b610fe56060830189610e3c565b610ff26080830188610f79565b610fff60c0830187610f79565b61100d610100830186610eda565b61101b610120830185610ecb565b611029610140830184610ecb565b9a9950505050505050505050565b600060208201905061104c6000830184610eda565b92915050565b600080fd5b6000601f19601f8301169050919050565b7f4e487b7100000000000000000000000000000000000000000000000000000000600052604160045260246000fd5b6110a082611057565b810181811067ffffffffffffffff821117156110bf576110be611068565b5b80604052505050565b60006110d2610d93565b90506110de8282611097565b919050565b600067ffffffffffffffff8211156110fe576110fd611068565b5b602082029050602081019050919050565b600080fd5b61111d81610f60565b811461112857600080fd5b50565b60008135905061113a81611114565b92915050565b600061115361114e846110e3565b6110c8565b905080838252602082019050602084028301858111156111765761117561110f565b5b835b8181101561119f578061118b888261112b565b845260208401935050602081019050611178565b5050509392505050565b600082601f8301126111be576111bd611052565b5b81356111ce848260208601611140565b91505092915050565b6000806000606084860312156111f0576111ef610d9d565b5b600084013567ffffffffffffffff81111561120e5761120d610da2565b5b61121a868287016111a9565b935050602084013567ffffffffffffffff81111561123b5761123a610da2565b5b611247868287016111a9565b925050604061125886828701610dc8565b9150509250925092565b7f4e487b7100000000000000000000000000000000000000000000000000000000600052601160045260246000fd5b600061129c82610da7565b91507fffffffffffffffffffffffffffffffffffffffffffffffffffffffffffffffff82036112ce576112cd611262565b5b600182019050919050565b7f4e487b7100000000000000000000000000000000000000000000000000000000600052603260045260246000fdfea264697066735822122078be599e2426c141a64ebbefa5ad370c06b7877c2929e730467efe05c0cc92e764736f6c63430008110033",
  "linkReferences": {},
  "deployedLinkReferences": {}
}