{
  "_format": "hh-sol-artifact-1",
  "contractName": "Deride",
  "sourceName": "contracts/deride.sol",
  "abi": [
    {
      "anonymous": false,
      "inputs": [
        {
          "indexed": false,
          "internalType": "uint256",
          "name": "riderNumber",
          "type": "uint256"
        }
      ],
      "name": "RiderDetails",
      "type": "event"
    },
    {
      "anonymous": false,
      "inputs": [
        {
          "indexed": false,
          "internalType": "uint256",
          "name": "riderNumber",
          "type": "uint256"
        }
      ],
      "name": "RiderPicked",
      "type": "event"
    },
    {
      "inputs": [
        {
          "internalType": "uint256",
          "name": "riderNumber",
          "type": "uint256"
        }
      ],
      "name": "acceptRequest",
      "outputs": [],
      "stateMutability": "nonpayable",
      "type": "function"
    },
    {
      "inputs": [],
      "name": "driveRequest",
      "outputs": [],
      "stateMutability": "nonpayable",
      "type": "function"
    },
    {
      "inputs": [
        {
          "internalType": "uint256",
          "name": "riderNumber",
          "type": "uint256"
        }
      ],
      "name": "markRideCompleted",
      "outputs": [],
      "stateMutability": "nonpayable",
      "type": "function"
    },
    {
      "inputs": [],
      "name": "rideRequest",
      "outputs": [],
      "stateMutability": "nonpayable",
      "type": "function"
    },
    {
      "inputs": [],
      "name": "showAllRequests",
      "outputs": [],
      "stateMutability": "nonpayable",
      "type": "function"
    },
    {
      "inputs": [
        {
          "internalType": "uint256",
          "name": "",
          "type": "uint256"
        }
      ],
      "name": "userList",
      "outputs": [
        {
          "internalType": "address",
          "name": "",
          "type": "address"
        }
      ],
      "stateMutability": "view",
      "type": "function"
    },
    {
      "inputs": [
        {
          "internalType": "address",
          "name": "",
          "type": "address"
        }
      ],
      "name": "users",
      "outputs": [
        {
          "internalType": "bool",
          "name": "isUser",
          "type": "bool"
        },
        {
          "internalType": "uint256",
          "name": "number",
          "type": "uint256"
        },
        {
          "internalType": "enum Deride.Status",
          "name": "state",
          "type": "uint8"
        }
      ],
      "stateMutability": "view",
      "type": "function"
    }
  ],
  "bytecode": "0x608060405234801561001057600080fd5b506116e7806100206000396000f3fe608060405234801561001057600080fd5b506004361061007d5760003560e01c80639e5d36101161005b5780639e5d3610146100c45780639f4216e8146100ce578063a87430ba146100fe578063c6ae60f1146101305761007d565b80634ba1f098146100825780637d6bbd3c1461009e57806386b2a1d8146100ba575b600080fd5b61009c6004803603810190610097919061108b565b61013a565b005b6100b860048036038101906100b3919061108b565b61057b565b005b6100c26108d8565b005b6100cc610bb7565b005b6100e860048036038101906100e3919061108b565b610dc2565b6040516100f591906110f9565b60405180910390f35b61011860048036038101906101139190611140565b610e01565b6040516101279392919061120e565b60405180910390f35b610138610e45565b005b600115156000803373ffffffffffffffffffffffffffffffffffffffff1673ffffffffffffffffffffffffffffffffffffffff16815260200190815260200160002060000160009054906101000a900460ff161515146101cf576040517f08c379a00000000000000000000000000000000000000000000000000000000081526004016101c6906112c8565b60405180910390fd5b600260038111156101e3576101e2611197565b5b6000803373ffffffffffffffffffffffffffffffffffffffff1673ffffffffffffffffffffffffffffffffffffffff16815260200190815260200160002060020160009054906101000a900460ff16600381111561024457610243611197565b5b14610284576040517f08c379a000000000000000000000000000000000000000000000000000000000815260040161027b9061135a565b60405180910390fd5b3373ffffffffffffffffffffffffffffffffffffffff16600182815481106102af576102ae61137a565b5b9060005260206000200160009054906101000a900473ffffffffffffffffffffffffffffffffffffffff1673ffffffffffffffffffffffffffffffffffffffff1603610330576040517f08c379a0000000000000000000000000000000000000000000000000000000008152600401610327906113f5565b60405180910390fd5b6001600381111561034457610343611197565b5b6000806001848154811061035b5761035a61137a565b5b9060005260206000200160009054906101000a900473ffffffffffffffffffffffffffffffffffffffff1673ffffffffffffffffffffffffffffffffffffffff1673ffffffffffffffffffffffffffffffffffffffff16815260200190815260200160002060020160009054906101000a900460ff1660038111156103e3576103e2611197565b5b14610423576040517f08c379a000000000000000000000000000000000000000000000000000000000815260040161041a90611487565b60405180910390fd5b60036000803373ffffffffffffffffffffffffffffffffffffffff1673ffffffffffffffffffffffffffffffffffffffff16815260200190815260200160002060020160006101000a81548160ff0219169083600381111561048857610487611197565b5b02179055506003808111156104a05761049f611197565b5b600080600184815481106104b7576104b661137a565b5b9060005260206000200160009054906101000a900473ffffffffffffffffffffffffffffffffffffffff1673ffffffffffffffffffffffffffffffffffffffff1673ffffffffffffffffffffffffffffffffffffffff16815260200190815260200160002060020160009054906101000a900460ff16600381111561053f5761053e611197565b5b50507fbb3937fca28526e3521a94bfdbced55a6bae44a3e4f4a66c36874f12e5459ddd8160405161057091906114a7565b60405180910390a150565b600115156000803373ffffffffffffffffffffffffffffffffffffffff1673ffffffffffffffffffffffffffffffffffffffff16815260200190815260200160002060000160009054906101000a900460ff16151514610610576040517f08c379a00000000000000000000000000000000000000000000000000000000081526004016106079061150e565b60405180910390fd5b60038081111561062357610622611197565b5b6000803373ffffffffffffffffffffffffffffffffffffffff1673ffffffffffffffffffffffffffffffffffffffff16815260200190815260200160002060020160009054906101000a900460ff16600381111561068457610683611197565b5b146106c4576040517f08c379a00000000000000000000000000000000000000000000000000000000081526004016106bb9061157a565b60405180910390fd5b6003808111156106d7576106d6611197565b5b600080600184815481106106ee576106ed61137a565b5b9060005260206000200160009054906101000a900473ffffffffffffffffffffffffffffffffffffffff1673ffffffffffffffffffffffffffffffffffffffff1673ffffffffffffffffffffffffffffffffffffffff16815260200190815260200160002060020160009054906101000a900460ff16600381111561077657610775611197565b5b146107b6576040517f08c379a00000000000000000000000000000000000000000000000000000000081526004016107ad906115e6565b60405180910390fd5b60008060003373ffffffffffffffffffffffffffffffffffffffff1673ffffffffffffffffffffffffffffffffffffffff16815260200190815260200160002060020160006101000a81548160ff0219169083600381111561081b5761081a611197565b5b02179055506000600381111561083457610833611197565b5b6000806001848154811061084b5761084a61137a565b5b9060005260206000200160009054906101000a900473ffffffffffffffffffffffffffffffffffffffff1673ffffffffffffffffffffffffffffffffffffffff1673ffffffffffffffffffffffffffffffffffffffff16815260200190815260200160002060020160009054906101000a900460ff1660038111156108d3576108d2611197565b5b505050565b600115156000803373ffffffffffffffffffffffffffffffffffffffff1673ffffffffffffffffffffffffffffffffffffffff16815260200190815260200160002060000160009054906101000a900460ff1615151461096d576040517f08c379a0000000000000000000000000000000000000000000000000000000008152600401610964906112c8565b60405180910390fd5b6002600381111561098157610980611197565b5b6000803373ffffffffffffffffffffffffffffffffffffffff1673ffffffffffffffffffffffffffffffffffffffff16815260200190815260200160002060020160009054906101000a900460ff1660038111156109e2576109e1611197565b5b14610a22576040517f08c379a0000000000000000000000000000000000000000000000000000000008152600401610a199061135a565b60405180910390fd5b60005b600180549050811015610bb45760016003811115610a4657610a45611197565b5b60008060018481548110610a5d57610a5c61137a565b5b9060005260206000200160009054906101000a900473ffffffffffffffffffffffffffffffffffffffff1673ffffffffffffffffffffffffffffffffffffffff1673ffffffffffffffffffffffffffffffffffffffff16815260200190815260200160002060020160009054906101000a900460ff166003811115610ae557610ae4611197565b5b03610ba1577f70dbb93f060c5673ae0c7ad49507c47fd4a6abf8e9a74b108cc0ac51b86727b660008060018481548110610b2257610b2161137a565b5b9060005260206000200160009054906101000a900473ffffffffffffffffffffffffffffffffffffffff1673ffffffffffffffffffffffffffffffffffffffff1673ffffffffffffffffffffffffffffffffffffffff16815260200190815260200160002060010154604051610b9891906114a7565b60405180910390a15b8080610bac90611635565b915050610a25565b50565b600015156000803373ffffffffffffffffffffffffffffffffffffffff1673ffffffffffffffffffffffffffffffffffffffff16815260200190815260200160002060000160009054906101000a900460ff16151503610d55576001339080600181540180825580915050600190039060005260206000200160009091909190916101000a81548173ffffffffffffffffffffffffffffffffffffffff021916908373ffffffffffffffffffffffffffffffffffffffff160217905550604051806060016040528060011515815260200160018080549050610c99919061167d565b815260200160026003811115610cb257610cb1611197565b5b8152506000803373ffffffffffffffffffffffffffffffffffffffff1673ffffffffffffffffffffffffffffffffffffffff16815260200190815260200160002060008201518160000160006101000a81548160ff0219169083151502179055506020820151816001015560408201518160020160006101000a81548160ff02191690836003811115610d4857610d47611197565b5b0217905550905050610dc0565b60026000803373ffffffffffffffffffffffffffffffffffffffff1673ffffffffffffffffffffffffffffffffffffffff16815260200190815260200160002060020160006101000a81548160ff02191690836003811115610dba57610db9611197565b5b02179055505b565b60018181548110610dd257600080fd5b906000526020600020016000915054906101000a900473ffffffffffffffffffffffffffffffffffffffff1681565b60006020528060005260406000206000915090508060000160009054906101000a900460ff16908060010154908060020160009054906101000a900460ff16905083565b600015156000803373ffffffffffffffffffffffffffffffffffffffff1673ffffffffffffffffffffffffffffffffffffffff16815260200190815260200160002060000160009054906101000a900460ff16151503610fe3576001339080600181540180825580915050600190039060005260206000200160009091909190916101000a81548173ffffffffffffffffffffffffffffffffffffffff021916908373ffffffffffffffffffffffffffffffffffffffff160217905550604051806060016040528060011515815260200160018080549050610f27919061167d565b815260200160016003811115610f4057610f3f611197565b5b8152506000803373ffffffffffffffffffffffffffffffffffffffff1673ffffffffffffffffffffffffffffffffffffffff16815260200190815260200160002060008201518160000160006101000a81548160ff0219169083151502179055506020820151816001015560408201518160020160006101000a81548160ff02191690836003811115610fd657610fd5611197565b5b021790555090505061104e565b60016000803373ffffffffffffffffffffffffffffffffffffffff1673ffffffffffffffffffffffffffffffffffffffff16815260200190815260200160002060020160006101000a81548160ff0219169083600381111561104857611047611197565b5b02179055505b565b600080fd5b6000819050919050565b61106881611055565b811461107357600080fd5b50565b6000813590506110858161105f565b92915050565b6000602082840312156110a1576110a0611050565b5b60006110af84828501611076565b91505092915050565b600073ffffffffffffffffffffffffffffffffffffffff82169050919050565b60006110e3826110b8565b9050919050565b6110f3816110d8565b82525050565b600060208201905061110e60008301846110ea565b92915050565b61111d816110d8565b811461112857600080fd5b50565b60008135905061113a81611114565b92915050565b60006020828403121561115657611155611050565b5b60006111648482850161112b565b91505092915050565b60008115159050919050565b6111828161116d565b82525050565b61119181611055565b82525050565b7f4e487b7100000000000000000000000000000000000000000000000000000000600052602160045260246000fd5b600481106111d7576111d6611197565b5b50565b60008190506111e8826111c6565b919050565b60006111f8826111da565b9050919050565b611208816111ed565b82525050565b60006060820190506112236000830186611179565b6112306020830185611188565b61123d60408301846111ff565b949350505050565b600082825260208201905092915050565b7f4e65656420746f2062652061207573657220746f2073656c656374207269646560008201527f7200000000000000000000000000000000000000000000000000000000000000602082015250565b60006112b2602183611245565b91506112bd82611256565b604082019050919050565b600060208201905081810360008301526112e1816112a5565b9050919050565b7f55736572206e6565647320746f20626520696e20647269766572206d6f64652060008201527f746f207069636b20726964657200000000000000000000000000000000000000602082015250565b6000611344602d83611245565b915061134f826112e8565b604082019050919050565b6000602082019050818103600083015261137381611337565b9050919050565b7f4e487b7100000000000000000000000000000000000000000000000000000000600052603260045260246000fd5b7f43616e6e6f74207069636b20796f757273656c66000000000000000000000000600082015250565b60006113df601483611245565b91506113ea826113a9565b602082019050919050565b6000602082019050818103600083015261140e816113d2565b9050919050565b7f75736572206265696e67207069636b65642068617320746f206265206120726960008201527f6465720000000000000000000000000000000000000000000000000000000000602082015250565b6000611471602383611245565b915061147c82611415565b604082019050919050565b600060208201905081810360008301526114a081611464565b9050919050565b60006020820190506114bc6000830184611188565b92915050565b7f4e65656420746f20626520612075736572206669727374000000000000000000600082015250565b60006114f8601783611245565b9150611503826114c2565b602082019050919050565b60006020820190508181036000830152611527816114eb565b9050919050565b7f447269766572206e6565647320746f206265206f6e2072696465206669727374600082015250565b6000611564602083611245565b915061156f8261152e565b602082019050919050565b6000602082019050818103600083015261159381611557565b9050919050565b7f52696465722073686f756c64206265206f6e2072696465206669727374000000600082015250565b60006115d0601d83611245565b91506115db8261159a565b602082019050919050565b600060208201905081810360008301526115ff816115c3565b9050919050565b7f4e487b7100000000000000000000000000000000000000000000000000000000600052601160045260246000fd5b600061164082611055565b91507fffffffffffffffffffffffffffffffffffffffffffffffffffffffffffffffff820361167257611671611606565b5b600182019050919050565b600061168882611055565b915061169383611055565b92508282039050818111156116ab576116aa611606565b5b9291505056fea2646970667358221220e4141b30c0a60a202216ec1425a05d418a1222ed2ef993e3b939d46f5eb7b44764736f6c63430008110033",
  "linkReferences": {},
  "deployedLinkReferences": {}
}